:020000040000fa
:080000000002040000000000f2
:020000040000fa
:04000800c80200002a
:020000040000fa
:04000c00c802000026
:020000040000fa
:04001000c802000022
:020000040000fa
:04001400c80200001e
:020000040000fa
:04001800c80200001a
:020000040000fa
:04001c00c802000016
:020000040000fa
:04002000c802000012
:020000040000fa
:04002400c80200000e
:020000040000fa
:04002800c80200000a
:020000040000fa
:04002c00c802000006
:020000040000fa
:04003000c802000002
:020000040000fa
:04003400c8020000fe
:020000040000fa
:04003800c8020000fa
:020000040000fa
:04003c00c8020000f6
:020000040000fa
:04004000c8020000f2
:020000040000fa
:04004400c8020000ee
:020000040000fa
:04004800c8020000ea
:020000040000fa
:04004c00c8020000e6
:020000040000fa
:04005000c8020000e2
:020000040000fa
:04005400c8020000de
:020000040000fa
:04005800c8020000da
:020000040000fa
:04005c00c8020000d6
:020000040000fa
:04006000c8020000d2
:020000040000fa
:04006400c8020000ce
:020000040000fa
:04006800c8020000ca
:020000040000fa
:04006c00c8020000c6
:020000040000fa
:04007000c8020000c2
:020000040000fa
:04007400c8020000be
:020000040000fa
:04007800c8020000ba
:020000040000fa
:04007c00c8020000b6
:020000040000fa
:04008000c8020000b2
:020000040000fa
:04008400c8020000ae
:020000040000fa
:04008800c8020000aa
:020000040000fa
:04008c00c8020000a6
:020000040000fa
:04009000c8020000a2
:020000040000fa
:04009400c80200009e
:020000040000fa
:04009800c80200009a
:020000040000fa
:04009c00c802000096
:020000040000fa
:0400a000c802000092
:020000040000fa
:0400a400c80200008e
:020000040000fa
:0400a800c80200008a
:020000040000fa
:0400ac00c802000086
:020000040000fa
:0400b000c802000082
:020000040000fa
:0400b400c80200007e
:020000040000fa
:0400b800c80200007a
:020000040000fa
:0400bc00c802000076
:020000040000fa
:0400c000c802000072
:020000040000fa
:0400c400c80200006e
:020000040000fa
:0400c800c80200006a
:020000040000fa
:0400cc00c802000066
:020000040000fa
:0400d000c802000062
:020000040000fa
:0400d400c80200005e
:020000040000fa
:0400d800c80200005a
:020000040000fa
:0400dc00c802000056
:020000040000fa
:0400e000c802000052
:020000040000fa
:0400e400c80200004e
:020000040000fa
:0400e800c80200004a
:020000040000fa
:0400ec00c802000046
:020000040000fa
:0400f000c802000042
:020000040000fa
:0400f400c80200003e
:020000040000fa
:0400f800c80200003a
:020000040000fa
:0400fc00c802000036
:020000040000fa
:04010000c802000031
:020000040000fa
:04010400c80200002d
:020000040000fa
:04010800c802000029
:020000040000fa
:04010c00c802000025
:020000040000fa
:04011000c802000021
:020000040000fa
:04011400c80200001d
:020000040000fa
:04011800c802000019
:020000040000fa
:04011c00c802000015
:020000040000fa
:04012000c802000011
:020000040000fa
:04012400c80200000d
:020000040000fa
:04012800c802000009
:020000040000fa
:04012c00c802000005
:020000040000fa
:04013000c802000001
:020000040000fa
:04013400c8020000fd
:020000040000fa
:04020800c802000028
:020000040000fa
:04020c00c802000024
:020000040000fa
:04021000c802000020
:020000040000fa
:04021400c80200001c
:020000040000fa
:04021800c802000018
:020000040000fa
:04021c00c802000014
:020000040000fa
:04022000c802000010
:020000040000fa
:04022400c80200000c
:020000040000fa
:04022800c802000008
:020000040000fa
:04022c00c802000004
:020000040000fa
:04023000c802000000
:020000040000fa
:04023400c8020000fc
:020000040000fa
:04023800c8020000f8
:020000040000fa
:04023c00c8020000f4
:020000040000fa
:04024000c8020000f0
:020000040000fa
:04024400c8020000ec
:020000040000fa
:04024800c8020000e8
:020000040000fa
:04024c00c8020000e4
:020000040000fa
:04025000c8020000e0
:020000040000fa
:04025400c8020000dc
:020000040000fa
:04025800c8020000d8
:020000040000fa
:04025c00c8020000d4
:020000040000fa
:04026000c8020000d0
:020000040000fa
:04026400c8020000cc
:020000040000fa
:04026800c8020000c8
:020000040000fa
:04026c00c8020000c4
:020000040000fa
:04027000c8020000c0
:020000040000fa
:04027400c8020000bc
:020000040000fa
:04027800c8020000b8
:020000040000fa
:04027c00c8020000b4
:020000040000fa
:04028000c8020000b0
:020000040000fa
:04028400c8020000ac
:020000040000fa
:04028800c8020000a8
:020000040000fa
:04028c00c8020000a4
:020000040000fa
:04029000c8020000a0
:020000040000fa
:04029400c80200009c
:020000040000fa
:04029800c802000098
:020000040000fa
:04029c00c802000094
:020000040000fa
:0402a000c802000090
:020000040000fa
:0402a400c80200008c
:020000040000fa
:0402a800c802000088
:020000040000fa
:0402ac00c802000084
:020000040000fa
:0402b000c802000080
:020000040000fa
:0402b400c80200007c
:020000040000fa
:0402b800c802000078
:020000040000fa
:0402bc00c802000074
:020000040000fa
:0402c000c802000070
:020000040000fa
:0402c400c80200006c
:020000040000fa
:0402c800c802000068
:020000040000fa
:0402cc00c802000064
:020000040000fa
:0402d000c802000060
:020000040000fa
:0402d400c80200005c
:020000040000fa
:0402d800c802000058
:020000040000fa
:0402dc00c802000054
:020000040000fa
:0402e000c802000050
:020000040000fa
:0402e400c80200004c
:020000040000fa
:0402e800c802000048
:020000040000fa
:0402ec00c802000044
:020000040000fa
:0402f000c802000040
:020000040000fa
:0402f400c80200003c
:020000040000fa
:0402f800c802000038
:020000040000fa
:0402fc00c802000034
:020000040000fa
:04030000c80200002f
:020000040000fa
:04030400c80200002b
:020000040000fa
:04030800c802000027
:020000040000fa
:04030c00c802000023
:020000040000fa
:04031000c80200001f
:020000040000fa
:04031400c80200001b
:020000040000fa
:04031800c802000017
:020000040000fa
:04031c00c802000013
:020000040000fa
:04032000c80200000f
:020000040000fa
:04032400c80200000b
:020000040000fa
:04032800c802000007
:020000040000fa
:04032c00c802000003
:020000040000fa
:04033000c8020000ff
:020000040000fa
:04033400c8020000fb
:020000040000fa
:100400000f8020000e7f22000e01880000000000f7
:10041000000020000000e000020032000001200087
:1004200020028800140007005b0007000000e000c5
:1004300003003a0000002000010020000200370005
:100440000000200001002000810f70000100320038
:1004500014000700000020000000e000020032004d
:10046000000002000000000008030200000000007d
:100470000040da000000fe004440a9000000200017
:100480000000e0000300320000002000a00188000e
:100490004440a800000006008a1f78008b1f7800e7
:1004a0000000060091018800800478000000eb0045
:1004b0001a003700e284440032a0b4009905ba0063
:1004c000e284440032a0b4009906ba00e2844400f9
:1004d00032a0b4000006eb00476fde00fd07b2005b
:1004e000636ce10003003a00ebff07000000eb0043
:1004f0000a003700606ce10004003a00005deb0088
:100500008b05e900fdff3e00040037006168e10053
:10051000010032000086eb000b00070019c7ba008b
:100520001905ba000e04e00003003a000a00e000da
:10053000e0ff3a0000000600fe07b2009e018800be
:100540008a047800f5ff3700395dba008b05e900b1
:100550000c003200295dba008b05e900080032006a
:100560000c00e00003003a00e284440032a0b40032
:10057000f5ff370019ddba008b05e900faff3a00f4
:100580008904e800e184440032a0b40000000600c1
:100590000040da000000fe00000005006022b80004
:1005a000060220000000d0008180d2000482d20028
:1005b0008582d2000000a0000202520083825a000d
:1005c000030031000202420083824a000000a100c1
:0c05d0000603e900f3ff3a0000000600fb
:020000040000fa
:1005dc000000fa000000eb00d100070050002000e2
:1005ec00bf000700c022ef00c422ef00901680006d
:1005fc000060a000901688006a00a8000080fa0035
:10060c00000006001000fa00f1ff07000000eb00ec
:10061c00000f78000000eb00100798000040eb0082
:10062c00404798000300370000000000010037002d
:10063c0000000000500020007f0007008000eb004d
:10064c0030079800410798003e019000ce019000c1
:10065c00f0ff2f0001002000800f5100818f590006
:10066c0002003a0000000000f2ff3700ce009000bc
:10067c00400620000088b900000178003e00900080
:10068c006000b9000000780000014100be0090003d
:10069c00400620000008b8000101410082007800eb
:1006ac00f23f200003002000b9ff0700500798001c
:1006bc0061079800a01680004600de0061406000d3
:1006cc00604f98005e019000ee0190001003200036
:1006dc0001002000800f5100818f590008003e005e
:1006ec000000eb00000f78000000eb0010079800f2
:1006fc000040eb0040479800c422ef001b0037007d
:10070c006e4890000004e00006003a000000eb0088
:10071c00000f780010c0b30040479800c422ef00cf
:10072c00120037005e019000ee01900010032000d3
:10073c0001002000800f5100818f59000b00360002
:10074c001e0078000000e00008003a004e409000c7
:10075c000004a2000004e00004003200100020009d
:10076c00000f78000000eb00100798001e007800c6
:10077c00e10f50000f003a00201680000000a2008c
:10078c002016880000242400f100200086000700b9
:10079c001e0090000000e800100798001e0090005a
:1007ac00f30f5000a0ff360020002000000f78004f
:1007bc00a0ff37001e007800e20f50009cff3a00ab
:1007cc00f00f2000201688009aff37000400fa0072
:1007dc00100798001e009000e40f50000400320037
:1007ec00e50f50000400320000c0eb001000370091
:1007fc000000000001003700000000001e00900007
:10080c000d000700d1cc2c000100b8004308de001d
:10081c00004f780040c6b3009e40780080cf500057
:10082c000200360040c6b300004f78001e4078002e
:10083c000080fa00000006000400fa00100798007f
:10084c001e009000e40f500004003200e50f500031
:10085c00040032000080eb001f0037000000000095
:10086c0001003700000000009e0090004119880034
:10087c002023a8000000eb00000f780002003700d6
:10088c00000000001e0fe800703e20009e00780063
:10089c00808f5000faff36002023a9000000eb00e7
:1008ac00000f780002003700000000001e0fe80067
:1008bc00703e20009e007800808f5000faff3600ba
:1008cc000000000000198000610060000000e000e2
:1008dc00fcff3200001880000080fa0000000600c7
:1008ec000200fa00000f78001e007800e40f5000a0
:1008fc0005003200e50f500006003a002ca3a900b9
:10090c0010c0b300040037002c83a90010c0b30042
:10091c00010037000040eb000080fa0000000600e8
:10092c000200fa00000f78001e0078000000e000c2
:10093c001a003a0011198000f0ff210000806000bd
:10094c001019880000c0eb0024e3b70001198000e7
:10095c00f0f12f0000806000001988002119800040
:10096c00f00f2e000080600000c0a000201988004d
:10097c0001198000f0cf2f00008060000019880062
:10098c001119800030fc2f000080600010198800c5
:10099c0021e3a80010c0b300010037000040eb00b9
:0809ac000080fa0000000600c3
:020000040000fa
:1009b400f03fb1000180b10006003500ee030900ec
:1009c40000000000403fb1000180b100fbff3d008a
:1009d4001000b000203fb000020035000080090084
:0809e400000000000000060005
:020000040000fa
:020000040002f8
:04aff8009dfa0000be
:020000040000fa
:020000040002f8
:04affc00ff3f000013
:00000001FF
