:020000040000fa
:080000000002040000000000f2
:020000040000fa
:04000800c80200002a
:020000040000fa
:04000c00c802000026
:020000040000fa
:04001000c802000022
:020000040000fa
:04001400c80200001e
:020000040000fa
:04001800c80200001a
:020000040000fa
:04001c00c802000016
:020000040000fa
:04002000c802000012
:020000040000fa
:04002400c80200000e
:020000040000fa
:04002800c80200000a
:020000040000fa
:04002c00c802000006
:020000040000fa
:04003000c802000002
:020000040000fa
:04003400c8020000fe
:020000040000fa
:04003800c8020000fa
:020000040000fa
:04003c00c8020000f6
:020000040000fa
:04004000c8020000f2
:020000040000fa
:04004400c8020000ee
:020000040000fa
:04004800c8020000ea
:020000040000fa
:04004c00c8020000e6
:020000040000fa
:04005000c8020000e2
:020000040000fa
:04005400c8020000de
:020000040000fa
:04005800c8020000da
:020000040000fa
:04005c00c8020000d6
:020000040000fa
:04006000c8020000d2
:020000040000fa
:04006400c8020000ce
:020000040000fa
:04006800c8020000ca
:020000040000fa
:04006c00c8020000c6
:020000040000fa
:04007000c8020000c2
:020000040000fa
:04007400c8020000be
:020000040000fa
:04007800c8020000ba
:020000040000fa
:04007c00c8020000b6
:020000040000fa
:04008000c8020000b2
:020000040000fa
:04008400c8020000ae
:020000040000fa
:04008800c8020000aa
:020000040000fa
:04008c00c8020000a6
:020000040000fa
:04009000c8020000a2
:020000040000fa
:04009400c80200009e
:020000040000fa
:04009800c80200009a
:020000040000fa
:04009c00c802000096
:020000040000fa
:0400a000c802000092
:020000040000fa
:0400a400c80200008e
:020000040000fa
:0400a800c80200008a
:020000040000fa
:0400ac00c802000086
:020000040000fa
:0400b000c802000082
:020000040000fa
:0400b400c80200007e
:020000040000fa
:0400b800c80200007a
:020000040000fa
:0400bc00c802000076
:020000040000fa
:0400c000c802000072
:020000040000fa
:0400c400c80200006e
:020000040000fa
:0400c800c80200006a
:020000040000fa
:0400cc00c802000066
:020000040000fa
:0400d000c802000062
:020000040000fa
:0400d400c80200005e
:020000040000fa
:0400d800c80200005a
:020000040000fa
:0400dc00c802000056
:020000040000fa
:0400e000c802000052
:020000040000fa
:0400e400c80200004e
:020000040000fa
:0400e800c80200004a
:020000040000fa
:0400ec00c802000046
:020000040000fa
:0400f000c802000042
:020000040000fa
:0400f400c80200003e
:020000040000fa
:0400f800c80200003a
:020000040000fa
:0400fc00c802000036
:020000040000fa
:04010000c802000031
:020000040000fa
:04010400c80200002d
:020000040000fa
:04010800c802000029
:020000040000fa
:04010c00c802000025
:020000040000fa
:04011000c802000021
:020000040000fa
:04011400c80200001d
:020000040000fa
:04011800c802000019
:020000040000fa
:04011c00c802000015
:020000040000fa
:04012000c802000011
:020000040000fa
:04012400c80200000d
:020000040000fa
:04012800c802000009
:020000040000fa
:04012c00c802000005
:020000040000fa
:04013000c802000001
:020000040000fa
:04013400c8020000fd
:020000040000fa
:04020800c802000028
:020000040000fa
:04020c00c802000024
:020000040000fa
:04021000c802000020
:020000040000fa
:04021400c80200001c
:020000040000fa
:04021800c802000018
:020000040000fa
:04021c00c802000014
:020000040000fa
:04022000c802000010
:020000040000fa
:04022400c80200000c
:020000040000fa
:04022800c802000008
:020000040000fa
:04022c00c802000004
:020000040000fa
:04023000c802000000
:020000040000fa
:04023400c8020000fc
:020000040000fa
:04023800c8020000f8
:020000040000fa
:04023c00c8020000f4
:020000040000fa
:04024000c8020000f0
:020000040000fa
:04024400c8020000ec
:020000040000fa
:04024800c8020000e8
:020000040000fa
:04024c00c8020000e4
:020000040000fa
:04025000c8020000e0
:020000040000fa
:04025400c8020000dc
:020000040000fa
:04025800c8020000d8
:020000040000fa
:04025c00c8020000d4
:020000040000fa
:04026000c8020000d0
:020000040000fa
:04026400c8020000cc
:020000040000fa
:04026800c8020000c8
:020000040000fa
:04026c00c8020000c4
:020000040000fa
:04027000c8020000c0
:020000040000fa
:04027400c8020000bc
:020000040000fa
:04027800c8020000b8
:020000040000fa
:04027c00c8020000b4
:020000040000fa
:04028000c8020000b0
:020000040000fa
:04028400c8020000ac
:020000040000fa
:04028800c8020000a8
:020000040000fa
:04028c00c8020000a4
:020000040000fa
:04029000c8020000a0
:020000040000fa
:04029400c80200009c
:020000040000fa
:04029800c802000098
:020000040000fa
:04029c00c802000094
:020000040000fa
:0402a000c802000090
:020000040000fa
:0402a400c80200008c
:020000040000fa
:0402a800c802000088
:020000040000fa
:0402ac00c802000084
:020000040000fa
:0402b000c802000080
:020000040000fa
:0402b400c80200007c
:020000040000fa
:0402b800c802000078
:020000040000fa
:0402bc00c802000074
:020000040000fa
:0402c000c802000070
:020000040000fa
:0402c400c80200006c
:020000040000fa
:0402c800c802000068
:020000040000fa
:0402cc00c802000064
:020000040000fa
:0402d000c802000060
:020000040000fa
:0402d400c80200005c
:020000040000fa
:0402d800c802000058
:020000040000fa
:0402dc00c802000054
:020000040000fa
:0402e000c802000050
:020000040000fa
:0402e400c80200004c
:020000040000fa
:0402e800c802000048
:020000040000fa
:0402ec00c802000044
:020000040000fa
:0402f000c802000040
:020000040000fa
:0402f400c80200003c
:020000040000fa
:0402f800c802000038
:020000040000fa
:0402fc00c802000034
:020000040000fa
:04030000c80200002f
:020000040000fa
:04030400c80200002b
:020000040000fa
:04030800c802000027
:020000040000fa
:04030c00c802000023
:020000040000fa
:04031000c80200001f
:020000040000fa
:04031400c80200001b
:020000040000fa
:04031800c802000017
:020000040000fa
:04031c00c802000013
:020000040000fa
:04032000c80200000f
:020000040000fa
:04032400c80200000b
:020000040000fa
:04032800c802000007
:020000040000fa
:04032c00c802000003
:020000040000fa
:04033000c8020000ff
:020000040000fa
:04033400c8020000fb
:020000040000fa
:100400006f8020000e7f22000e0188000000000097
:10041000000020000000e000020032000001200087
:1004200020028800140007005b0007000000e000c5
:1004300003003a00c05820000100200002003700ed
:100440000000200001002000810f70000100320038
:1004500014000700000020000000e000020032004d
:100460000000020000000000740302000000000011
:100470000040da000000fe004440a90040012000d6
:100480000000e0000300320000002000a00188000e
:100490004440a800000006008a1f78008b1f7800e7
:1004a0000000060091018800800478000000eb0045
:1004b0001a003700e284440032a0b4009905ba0063
:1004c000e284440032a0b4009906ba00e2844400f9
:1004d00032a0b4000006eb00476fde00fd07b2005b
:1004e000636ce10003003a00ebff07000000eb0043
:1004f0000a003700606ce10004003a00005deb0088
:100500008b05e900fdff3e00040037006168e10053
:10051000010032000086eb000b00070019c7ba008b
:100520001905ba000e04e00003003a000a00e000da
:10053000e0ff3a0000000600fe07b2009e018800be
:100540008a047800f5ff3700395dba008b05e900b1
:100550000c003200295dba008b05e900080032006a
:100560000c00e00003003a00e284440032a0b40032
:10057000f5ff370019ddba008b05e900faff3a00f4
:100580008904e800e184440032a0b40000000600c1
:100590000040da000000fe00000005006022b80004
:1005a000060220000000d0008180d2000482d20028
:1005b0008582d2000000a0000202520083825a000d
:1005c000030031000202420083824a000000a100c1
:0c05d0000603e900f3ff3a0000000600fb
:020000040000fa
:1005dc00808400001e000000808d00005b00000085
:1005ec00001b0000b7000000003600006e01000088
:0805fc00005a00006202000039
:020000040000fa
:100604000000fa000000eb00120107005000200077
:10061400000107000080eb0060198800c022ef0091
:10062400301680008001b30030168800c422ef0029
:1006340068c0a80068e0a8000080fa000000060076
:100644000600fa0050002000c80007008000eb00fc
:1006540010079800210798001e019000ae01900039
:10066400f0ff2f0001002000800f5100818f5900fe
:1006740003003a00b0178400c1178400100037004b
:100684001e009000ae009000d20c20000300200059
:10069400c1ff0700004f78001e407800e44f50006f
:1006a4000200360040c0b300004f78001e80fb00fb
:1006b400c200dd00e02e2800008040001000be00d3
:1006c4000080fa00000006000000fa000068ef0055
:1006d4000228ef0010002000204088000080fa006b
:1006e400000006000e00fa00c5ff07000040eb0002
:1006f400004f780010c0b3001047980010c0b3003a
:10070400004f980010c0b3002047980010c0b300f9
:10071400104f98001e80fb000000e0000300320030
:10072400e10f5000080032001900370000c8bf0074
:100734000080fb002016880000c8bf000040e800cd
:1007440000e8b70016003700104080007100200058
:100754000008dd0020168800114080002040800041
:10076400008040001040880010408000e50f5000d9
:1007740003003200104080000000e00007003a004f
:10078400204080000000ea00204088000400370078
:100794000040eb00004f780001003700000000002b
:1007a400a7ff070050079800610798006000b80091
:1007b400200798003107980049003700007d200089
:1007c40001002000c5000700401680004300de0041
:1007d40061406000004f9800401680004400de0035
:1007e40061406000104f98000e4890000004e00043
:1007f40016003a001e409000e14f500013003a00ea
:1008040000e2240001002000b4000700401680002c
:10081400680060000000e0000c003a001e80fb004d
:100824008000e80010002800008060000000e00064
:1008340004003d000000e900e1ff2f00008070008b
:100844000000e800004f78009fff07001e4890005a
:100854000004e00016003a002e409000e14f5000e2
:1008640013003a0000e22400010020009b0007006e
:1008740040168000700060000000e0000c003a00a8
:100884001e80fb008000e80010002800008060004b
:100894000000e00004003d000000e900e1ff2f003b
:1008a400008070000000e800004f780086ff070019
:1008b4008e489000114798009e4890002147980068
:1008c4002e019000be019000007d20000100200058
:1008d40002004000838048002007980031079800f8
:1008e4002e019000be0190005e009000ee0090008a
:1008f400800f5100818f5900b0ff390085ff370008
:100904000400fa00100798001e009000e40f500045
:1009140004003200e50f50000400320000c0eb0078
:100924001000370000000000010037000000000044
:100934001e0090000d000700d1cc2c000100b8006f
:100944004308de00004f780040c6b3009e407800a4
:1009540080cf50000200360040c6b300004f78003c
:100964001e4078000080fa00000006000400fa002f
:10097400100798001e009000e40f5000040032009d
:10098400e50f5000040032000080eb001f00370028
:100994000000000001003700000000009e009000ed
:1009a400411988002023a8000000eb00000f780004
:1009b40002003700000000001e0fe800703e200017
:1009c4009e007800808f5000faff36002023a90093
:1009d4000000eb00000f7800020037000000000068
:1009e4001e0fe800703e20009e007800808f5000ab
:1009f400faff36000000000000198000610060006a
:100a04000000e000fcff3200001880000080fa00c3
:100a1400000006000200fa00000f78001e007800b3
:100a2400e40f500005003200e50f500006003a00c4
:100a34002ca3a90010c0b300040037002c83a90024
:100a440010c0b300010037000040eb000080fa0042
:100a5400000006000200fa00000f78001e00780073
:100a64000000e0001a003a0011198000f0ff210094
:100a7400008060001019880000c0eb0024e3b70078
:100a840001198000f0f12f00008060000019880037
:100a940021198000f00f2e000080600000c0a0002b
:100aa4002019880001198000f0cf2f000080600019
:100ab400001988001119800030fc2f0000806000ac
:100ac4001019880021e3a80010c0b300010037000a
:0c0ad4000040eb000080fa00000006006b
:020000040000fa
:100ae000f03fb1000180b10006003500ee030900bf
:100af00000000000403fb1000180b100fbff3d005d
:100b00001000b000203fb000020035000080090056
:080b10000000000000000600d7
:020000040000fa
:100b180000080000040000000000000004080000b5
:100b280002000000020000000100000000000000b8
:020000040000fa
:020000040002f8
:04aff8009dfa0000be
:020000040000fa
:020000040002f8
:04affc00ff3f000013
:00000001FF
