:020000040000fa
:080000000002040000000000f2
:020000040000fa
:04000800c80200002a
:020000040000fa
:04000c00c802000026
:020000040000fa
:04001000c802000022
:020000040000fa
:04001400c80200001e
:020000040000fa
:04001800c80200001a
:020000040000fa
:04001c00c802000016
:020000040000fa
:04002000c802000012
:020000040000fa
:04002400c80200000e
:020000040000fa
:04002800c80200000a
:020000040000fa
:04002c00c802000006
:020000040000fa
:04003000c802000002
:020000040000fa
:04003400c8020000fe
:020000040000fa
:04003800c8020000fa
:020000040000fa
:04003c00c8020000f6
:020000040000fa
:04004000c8020000f2
:020000040000fa
:04004400c8020000ee
:020000040000fa
:04004800c8020000ea
:020000040000fa
:04004c00c8020000e6
:020000040000fa
:04005000c8020000e2
:020000040000fa
:04005400c8020000de
:020000040000fa
:04005800c8020000da
:020000040000fa
:04005c00c8020000d6
:020000040000fa
:04006000c8020000d2
:020000040000fa
:04006400c8020000ce
:020000040000fa
:04006800c8020000ca
:020000040000fa
:04006c00c8020000c6
:020000040000fa
:04007000c8020000c2
:020000040000fa
:04007400c8020000be
:020000040000fa
:04007800c8020000ba
:020000040000fa
:04007c00c8020000b6
:020000040000fa
:04008000c8020000b2
:020000040000fa
:04008400c8020000ae
:020000040000fa
:04008800c8020000aa
:020000040000fa
:04008c00c8020000a6
:020000040000fa
:04009000c8020000a2
:020000040000fa
:04009400c80200009e
:020000040000fa
:04009800c80200009a
:020000040000fa
:04009c00c802000096
:020000040000fa
:0400a000c802000092
:020000040000fa
:0400a400c80200008e
:020000040000fa
:0400a800c80200008a
:020000040000fa
:0400ac00c802000086
:020000040000fa
:0400b000c802000082
:020000040000fa
:0400b400c80200007e
:020000040000fa
:0400b800c80200007a
:020000040000fa
:0400bc00c802000076
:020000040000fa
:0400c000c802000072
:020000040000fa
:0400c400c80200006e
:020000040000fa
:0400c800c80200006a
:020000040000fa
:0400cc00c802000066
:020000040000fa
:0400d000c802000062
:020000040000fa
:0400d400c80200005e
:020000040000fa
:0400d800c80200005a
:020000040000fa
:0400dc00c802000056
:020000040000fa
:0400e000c802000052
:020000040000fa
:0400e400c80200004e
:020000040000fa
:0400e800c80200004a
:020000040000fa
:0400ec00c802000046
:020000040000fa
:0400f000c802000042
:020000040000fa
:0400f400c80200003e
:020000040000fa
:0400f800c80200003a
:020000040000fa
:0400fc00c802000036
:020000040000fa
:04010000c802000031
:020000040000fa
:04010400c80200002d
:020000040000fa
:04010800c802000029
:020000040000fa
:04010c00c802000025
:020000040000fa
:04011000c802000021
:020000040000fa
:04011400c80200001d
:020000040000fa
:04011800c802000019
:020000040000fa
:04011c00c802000015
:020000040000fa
:04012000c802000011
:020000040000fa
:04012400c80200000d
:020000040000fa
:04012800c802000009
:020000040000fa
:04012c00c802000005
:020000040000fa
:04013000c802000001
:020000040000fa
:04013400c8020000fd
:020000040000fa
:04020800c802000028
:020000040000fa
:04020c00c802000024
:020000040000fa
:04021000c802000020
:020000040000fa
:04021400c80200001c
:020000040000fa
:04021800c802000018
:020000040000fa
:04021c00c802000014
:020000040000fa
:04022000c802000010
:020000040000fa
:04022400c80200000c
:020000040000fa
:04022800c802000008
:020000040000fa
:04022c00c802000004
:020000040000fa
:04023000c802000000
:020000040000fa
:04023400c8020000fc
:020000040000fa
:04023800c8020000f8
:020000040000fa
:04023c00c8020000f4
:020000040000fa
:04024000c8020000f0
:020000040000fa
:04024400c8020000ec
:020000040000fa
:04024800c8020000e8
:020000040000fa
:04024c00c8020000e4
:020000040000fa
:04025000c8020000e0
:020000040000fa
:04025400c8020000dc
:020000040000fa
:04025800c8020000d8
:020000040000fa
:04025c00c8020000d4
:020000040000fa
:04026000c8020000d0
:020000040000fa
:04026400c8020000cc
:020000040000fa
:04026800c8020000c8
:020000040000fa
:04026c00c8020000c4
:020000040000fa
:04027000c8020000c0
:020000040000fa
:04027400c8020000bc
:020000040000fa
:04027800c8020000b8
:020000040000fa
:04027c00c8020000b4
:020000040000fa
:04028000c8020000b0
:020000040000fa
:04028400c8020000ac
:020000040000fa
:04028800c8020000a8
:020000040000fa
:04028c00c8020000a4
:020000040000fa
:04029000c8020000a0
:020000040000fa
:04029400c80200009c
:020000040000fa
:04029800c802000098
:020000040000fa
:04029c00c802000094
:020000040000fa
:0402a000c802000090
:020000040000fa
:0402a400c80200008c
:020000040000fa
:0402a800c802000088
:020000040000fa
:0402ac00c802000084
:020000040000fa
:0402b000c802000080
:020000040000fa
:0402b400c80200007c
:020000040000fa
:0402b800c802000078
:020000040000fa
:0402bc00c802000074
:020000040000fa
:0402c000c802000070
:020000040000fa
:0402c400c80200006c
:020000040000fa
:0402c800c802000068
:020000040000fa
:0402cc00c802000064
:020000040000fa
:0402d000c802000060
:020000040000fa
:0402d400c80200005c
:020000040000fa
:0402d800c802000058
:020000040000fa
:0402dc00c802000054
:020000040000fa
:0402e000c802000050
:020000040000fa
:0402e400c80200004c
:020000040000fa
:0402e800c802000048
:020000040000fa
:0402ec00c802000044
:020000040000fa
:0402f000c802000040
:020000040000fa
:0402f400c80200003c
:020000040000fa
:0402f800c802000038
:020000040000fa
:0402fc00c802000034
:020000040000fa
:04030000c80200002f
:020000040000fa
:04030400c80200002b
:020000040000fa
:04030800c802000027
:020000040000fa
:04030c00c802000023
:020000040000fa
:04031000c80200001f
:020000040000fa
:04031400c80200001b
:020000040000fa
:04031800c802000017
:020000040000fa
:04031c00c802000013
:020000040000fa
:04032000c80200000f
:020000040000fa
:04032400c80200000b
:020000040000fa
:04032800c802000007
:020000040000fa
:04032c00c802000003
:020000040000fa
:04033000c8020000ff
:020000040000fa
:04033400c8020000fb
:020000040000fa
:100400006f8020000e7f22000e0188000000000097
:10041000000020000000e000020032000001200087
:1004200020028800140007005b0007000000e000c5
:1004300003003a00404f2000010020000200370076
:100440000000200001002000810f70000100320038
:1004500014000700000020000000e000020032004d
:100460000000020000000000ce02020000000000b8
:100470000040da000000fe004440a9000000200017
:100480000000e0000300320000002000a00188000e
:100490004440a800000006008a1f78008b1f7800e7
:1004a0000000060091018800800478000000eb0045
:1004b0001a003700e284440032a0b4009905ba0063
:1004c000e284440032a0b4009906ba00e2844400f9
:1004d00032a0b4000006eb00476fde00fd07b2005b
:1004e000636ce10003003a00ebff07000000eb0043
:1004f0000a003700606ce10004003a00005deb0088
:100500008b05e900fdff3e00040037006168e10053
:10051000010032000086eb000b00070019c7ba008b
:100520001905ba000e04e00003003a000a00e000da
:10053000e0ff3a0000000600fe07b2009e018800be
:100540008a047800f5ff3700395dba008b05e900b1
:100550000c003200295dba008b05e900080032006a
:100560000c00e00003003a00e284440032a0b40032
:10057000f5ff370019ddba008b05e900faff3a00f4
:100580008904e800e184440032a0b40000000600c1
:0c0590000040da000000fe000000050042
:020000040000fa
:10059c001200fa00c022ef000080eb0090168800d9
:1005ac000040eb00004f78000000eb0010079800b3
:1005bc000000eb00200798000040eb00604798001b
:1005cc00a01680004600de00614060000080fb0049
:1005dc0040079800a01680004d00de0061406000ce
:1005ec000080fb00500798004e009000e10f500077
:1005fc000b003a001e0090000000e00008003a00da
:10060c001e4fe8000040eb00604798001e40780049
:10061c00e84f5000020036000040eb00004f78001d
:10062c005e009000e10f50000a003a002e0090008e
:10063c000000e00007003a001e4078000004e000d3
:10064c0003003a0080c0b300004f7800010037006f
:10065c001e4fe900ce00900011079800de009000bc
:10066c00210798001e80fb00e40f50004900320067
:10067c00e40f50000c003c00e10f50001d00320054
:10068c00e10f500003003c000000e0000f003200be
:10069c00cbff3700e20f500020003200e30f500078
:1006ac002d003200c6ff3700e60f50007f003200ed
:1006bc00e60f50005a003500e70f50009000320052
:1006cc00e80f50009d003200bdff37006e409000d7
:1006dc000080fb00201688006e4090000040e8006f
:1006ec00604798000071220001002000ad00070057
:1006fc00ab0037006e4090000080fb002016880095
:10070c006e4090000040e9006047980000712200a4
:10071c0001002000a3000700a10037006e409000ec
:10072c000080fb000000d100804078006e409000fb
:10073c0000c068000080fb00201688006e4090000e
:10074c000040e80060479800007122000100200082
:10075c0094000700920037006e4090000080fb0070
:10076c000000d100804078006e40900000c068000e
:10077c000080fb00201688006e4090000040e900cd
:10078c0060479800007122000100200085000700de
:10079c00830037006e4090008080fb00d0cc2c0092
:1007ac000008b8004308de00404f98006e409000ef
:1007bc000081fb00d0cc2c000010b8004308de00f8
:1007cc006a00b9000000780000005100504f9800fa
:1007dc004e4890000080fb00c400dd005e48900095
:1007ec000080fb0001007000201688006e40900015
:1007fc000040e80060479800ee40900030c6b3001f
:10080c0080cf5000020036000040eb00604798009b
:10081c000071220001002000620007006000370018
:10082c006e4090008080fb00d0cc2c000008b800fb
:10083c004308de00604f98006e4090000081fb0082
:10084c00d0cc2c000010b8004308de006a00b900c0
:10085c000000780000005100704f98006e48900026
:10086c000080fb00c400dd007e4890000080fb008f
:10087c0001007000201688006e4090000004e0001b
:10088c0003003a0030c6b3006047980003003700fd
:10089c006e4090000040e900604798000071220013
:1008ac00010020003f0007003d0037002040800081
:1008bc00110020000008dd00201688002140800077
:1008cc0000408000008040002040880020408000d4
:1008dc00e70f500003003200204080000000e000d1
:1008ec0003003a00004080000000ea00004088004d
:1008fc0000712200010020002a00070028003700a8
:10090c0002c8bf000080fb002016880002c8bf0090
:10091c000040400002e8b70002c8bf000004e0003d
:10092c0002003a0010c0b30002e8b70000712200c8
:10093c00010020001b0007001900370003c8bf008e
:10094c000080fb004500de008040780003c8bf003b
:10095c000080fb004400de000040780000c068000e
:10096c00614060000057980003c8bf000080fb0086
:10097c0000004000804078000e50900000c07000d5
:10098c0003e8b70003c8bf000080fb0020168800f6
:10099c00007122000100200002000700000000008e
:0409ac0007ff37000a
:020000040000fa
:1009b000f03fb1000180b10006003500ee030900f0
:1009c00000000000403fb1000180b100fbff3d008e
:1009d0001000b000203fb000020035000080090088
:0809e000000000000000060009
:020000040000fa
:1009e80004080000020000000000000000080000e9
:1009f80004000000020000000100010039000000ae
:040a080000000000ea
:020000040000fa
:020000040002f8
:04aff8009dfa0000be
:020000040000fa
:020000040002f8
:04affc00ff3f000013
:00000001FF
