:020000040000fa
:080000000002040000000000f2
:020000040000fa
:04000800c80200002a
:020000040000fa
:04000c00c802000026
:020000040000fa
:04001000c802000022
:020000040000fa
:04001400c80200001e
:020000040000fa
:04001800c80200001a
:020000040000fa
:04001c00c802000016
:020000040000fa
:04002000c802000012
:020000040000fa
:04002400c80200000e
:020000040000fa
:04002800c80200000a
:020000040000fa
:04002c00c802000006
:020000040000fa
:04003000c802000002
:020000040000fa
:04003400c8020000fe
:020000040000fa
:04003800c8020000fa
:020000040000fa
:04003c00c8020000f6
:020000040000fa
:04004000c8020000f2
:020000040000fa
:04004400c8020000ee
:020000040000fa
:04004800c8020000ea
:020000040000fa
:04004c00c8020000e6
:020000040000fa
:04005000c8020000e2
:020000040000fa
:04005400c8020000de
:020000040000fa
:04005800c8020000da
:020000040000fa
:04005c00c8020000d6
:020000040000fa
:04006000c8020000d2
:020000040000fa
:04006400c8020000ce
:020000040000fa
:04006800c8020000ca
:020000040000fa
:04006c00c8020000c6
:020000040000fa
:04007000c8020000c2
:020000040000fa
:04007400c8020000be
:020000040000fa
:04007800c8020000ba
:020000040000fa
:04007c00c8020000b6
:020000040000fa
:04008000c8020000b2
:020000040000fa
:04008400c8020000ae
:020000040000fa
:04008800c8020000aa
:020000040000fa
:04008c00c8020000a6
:020000040000fa
:04009000c8020000a2
:020000040000fa
:04009400c80200009e
:020000040000fa
:04009800c80200009a
:020000040000fa
:04009c00c802000096
:020000040000fa
:0400a000c802000092
:020000040000fa
:0400a400c80200008e
:020000040000fa
:0400a800c80200008a
:020000040000fa
:0400ac00c802000086
:020000040000fa
:0400b000c802000082
:020000040000fa
:0400b400c80200007e
:020000040000fa
:0400b800c80200007a
:020000040000fa
:0400bc00c802000076
:020000040000fa
:0400c000c802000072
:020000040000fa
:0400c400c80200006e
:020000040000fa
:0400c800c80200006a
:020000040000fa
:0400cc00c802000066
:020000040000fa
:0400d000c802000062
:020000040000fa
:0400d400c80200005e
:020000040000fa
:0400d800c80200005a
:020000040000fa
:0400dc00c802000056
:020000040000fa
:0400e000c802000052
:020000040000fa
:0400e400c80200004e
:020000040000fa
:0400e800c80200004a
:020000040000fa
:0400ec00c802000046
:020000040000fa
:0400f000c802000042
:020000040000fa
:0400f400c80200003e
:020000040000fa
:0400f800c80200003a
:020000040000fa
:0400fc00c802000036
:020000040000fa
:04010000c802000031
:020000040000fa
:04010400c80200002d
:020000040000fa
:04010800c802000029
:020000040000fa
:04010c00c802000025
:020000040000fa
:04011000c802000021
:020000040000fa
:04011400c80200001d
:020000040000fa
:04011800c802000019
:020000040000fa
:04011c00c802000015
:020000040000fa
:04012000c802000011
:020000040000fa
:04012400c80200000d
:020000040000fa
:04012800c802000009
:020000040000fa
:04012c00c802000005
:020000040000fa
:04013000c802000001
:020000040000fa
:04013400c8020000fd
:020000040000fa
:04020800c802000028
:020000040000fa
:04020c00c802000024
:020000040000fa
:04021000c802000020
:020000040000fa
:04021400c80200001c
:020000040000fa
:04021800c802000018
:020000040000fa
:04021c00c802000014
:020000040000fa
:04022000c802000010
:020000040000fa
:04022400c80200000c
:020000040000fa
:04022800c802000008
:020000040000fa
:04022c00c802000004
:020000040000fa
:04023000c802000000
:020000040000fa
:04023400c8020000fc
:020000040000fa
:04023800c8020000f8
:020000040000fa
:04023c00c8020000f4
:020000040000fa
:04024000c8020000f0
:020000040000fa
:04024400c8020000ec
:020000040000fa
:04024800c8020000e8
:020000040000fa
:04024c00c8020000e4
:020000040000fa
:04025000c8020000e0
:020000040000fa
:04025400c8020000dc
:020000040000fa
:04025800c8020000d8
:020000040000fa
:04025c00c8020000d4
:020000040000fa
:04026000c8020000d0
:020000040000fa
:04026400c8020000cc
:020000040000fa
:04026800c8020000c8
:020000040000fa
:04026c00c8020000c4
:020000040000fa
:04027000c8020000c0
:020000040000fa
:04027400c8020000bc
:020000040000fa
:04027800c8020000b8
:020000040000fa
:04027c00c8020000b4
:020000040000fa
:04028000c8020000b0
:020000040000fa
:04028400c8020000ac
:020000040000fa
:04028800c8020000a8
:020000040000fa
:04028c00c8020000a4
:020000040000fa
:04029000c8020000a0
:020000040000fa
:04029400c80200009c
:020000040000fa
:04029800c802000098
:020000040000fa
:04029c00c802000094
:020000040000fa
:0402a000c802000090
:020000040000fa
:0402a400c80200008c
:020000040000fa
:0402a800c802000088
:020000040000fa
:0402ac00c802000084
:020000040000fa
:0402b000c802000080
:020000040000fa
:0402b400c80200007c
:020000040000fa
:0402b800c802000078
:020000040000fa
:0402bc00c802000074
:020000040000fa
:0402c000c802000070
:020000040000fa
:0402c400c80200006c
:020000040000fa
:0402c800c802000068
:020000040000fa
:0402cc00c802000064
:020000040000fa
:0402d000c802000060
:020000040000fa
:0402d400c80200005c
:020000040000fa
:0402d800c802000058
:020000040000fa
:0402dc00c802000054
:020000040000fa
:0402e000c802000050
:020000040000fa
:0402e400c80200004c
:020000040000fa
:0402e800c802000048
:020000040000fa
:0402ec00c802000044
:020000040000fa
:0402f000c802000040
:020000040000fa
:0402f400c80200003c
:020000040000fa
:0402f800c802000038
:020000040000fa
:0402fc00c802000034
:020000040000fa
:04030000c80200002f
:020000040000fa
:04030400c80200002b
:020000040000fa
:04030800c802000027
:020000040000fa
:04030c00c802000023
:020000040000fa
:04031000c80200001f
:020000040000fa
:04031400c80200001b
:020000040000fa
:04031800c802000017
:020000040000fa
:04031c00c802000013
:020000040000fa
:04032000c80200000f
:020000040000fa
:04032400c80200000b
:020000040000fa
:04032800c802000007
:020000040000fa
:04032c00c802000003
:020000040000fa
:04033000c8020000ff
:020000040000fa
:04033400c8020000fb
:020000040000fa
:100400000f8020000e7f22000e01880000000000f7
:10041000000020000000e000020032000001200087
:1004200020028800140007005b0007000000e000c5
:1004300003003a0000002000010020000200370005
:100440000000200001002000810f70000100320038
:1004500014000700000020000000e000020032004d
:100460000000020000000000ce02020000000000b8
:100470000040da000000fe004440a9000000200017
:100480000000e0000300320000002000a00188000e
:100490004440a800000006008a1f78008b1f7800e7
:1004a0000000060091018800800478000000eb0045
:1004b0001a003700e284440032a0b4009905ba0063
:1004c000e284440032a0b4009906ba00e2844400f9
:1004d00032a0b4000006eb00476fde00fd07b2005b
:1004e000636ce10003003a00ebff07000000eb0043
:1004f0000a003700606ce10004003a00005deb0088
:100500008b05e900fdff3e00040037006168e10053
:10051000010032000086eb000b00070019c7ba008b
:100520001905ba000e04e00003003a000a00e000da
:10053000e0ff3a0000000600fe07b2009e018800be
:100540008a047800f5ff3700395dba008b05e900b1
:100550000c003200295dba008b05e900080032006a
:100560000c00e00003003a00e284440032a0b40032
:10057000f5ff370019ddba008b05e900faff3a00f4
:100580008904e800e184440032a0b40000000600c1
:0c0590000040da000000fe000000050042
:020000040000fa
:10059c001200fa000080eb0060198800c022ef0006
:1005ac000080eb00901688000040eb00004f7800b4
:1005bc000040eb00104798000040eb00004f980003
:1005cc000040eb00104f98000040eb00204f9800cb
:1005dc000040eb00304f98000000eb001007980033
:1005ec00100020002007980010c0b300604798004e
:1005fc0090c3b30070479800010037000000000062
:10060c001e80fb00e40f50003d003200e40f500050
:10061c000c003c00e10f50001a003200e10f5000ba
:10062c0003003c000000e0000f003200ad0037007a
:10063c00e20f50001a003200e30f50002400320089
:10064c00a8003700e60f50006d003200e60f500096
:10065c004b003500e70f50007b003200e80f5000d4
:10066c00850032009f0037001e4090000080fb0088
:10067c00201688001e4090000040e80010479800ab
:10068c00980037001e4090000080fb002016880068
:10069c001e4090000040e900104798009100370080
:1006ac001e4090000080fb000000d10080407800cc
:1006bc001e40900000c068000080fb0020168800df
:1006cc001e4090000040e80010479800850037005d
:1006dc001e4090000080fb000000d100804078009c
:1006ec001e40900000c068000080fb0020168800af
:1006fc001e4090000040e900104798007900370038
:10070c001e4090008080fb00d0cc2c000008b8006c
:10071c004308de00404f98001e4090000081fb0013
:10072c00d0cc2c000010b8004308de006a00b900e1
:10073c000000780000005100504f98004e48900087
:10074c000080fb00c400dd005e4890000080fb00d0
:10075c0001007000201688001e4090000040e80048
:10076c00104798009e40900030c6b30080cf5000d8
:10077c00570036000040eb00104798005900370036
:10078c001e4090008080fb00d0cc2c000008b800ec
:10079c004308de00604f98001e4090000081fb0073
:1007ac00d0cc2c000010b8004308de006a00b90061
:1007bc000000780000005100704f98006e489000c7
:1007cc000080fb00c400dd007e4890000080fb0030
:1007dc0001007000201688001e4090000004e0000c
:1007ec0003003a0030c6b300104798003d003700b4
:1007fc001e4090000040e900104798003900370077
:10080c00710020001e0090000008dd0020168800fa
:10081c009e0090002e009000008040001007980071
:10082c001e009000e50f5000030032001e009000e7
:10083c000000e00028003a002e0090000000ea00c2
:10084c0020079800270037006e4090000080fb00c6
:10085c00201688006e4090000040400060479800d1
:10086c006e4090000004e0001d003a0010c0b30080
:10087c00604798001b0037007e4090000080fb0012
:10088c004500de00804078007e4090000080fb0038
:10089c004400de000040780000c068006140600049
:1008ac00005798007e4090000080fb000000400044
:1008bc00804078000e50900000c070007047980087
:1008cc007e4090000080fb00201688000500370059
:1008dc00000000000300370000000000010037009a
:1008ec0000000000a01680004600de0061406000a1
:1008fc00004f9800a01680004700de0061406000a9
:10090c00204f980000122a007100200038000700c8
:10091c00a01680004600de0061406000104f980079
:10092c00a01680004700de0061406000304f980048
:10093c001e4890008000fb000e4890000000fb0059
:10094c0000805000e10f500010003a001e4fe800ec
:10095c001e407800e84f5000020036000040eb00cb
:10096c00004f78000040eb00104798000000eb00af
:10097c0010079800100020002007980010c0b3004a
:10098c006047980090c3b300704798003e489000b1
:10099c008000fb002e4890000000fb0000805000ff
:1009ac00e10f500015ff3a001e4078000004e000f3
:1009bc0003003a0080c0b300004f780001003700fc
:1009cc001e4fe9000040eb00104798000000eb00c0
:1009dc0010079800100020002007980010c0b300ea
:1009ec006047980090c3b3007047980004ff37002d
:020000040000fa
:1009fc00f03fb1000180b10006003500ee030900a4
:100a0c0000000000403fb1000180b100fbff3d0041
:100a1c001000b000203fb00002003500008009003b
:080a2c000000000000000600bc
:020000040000fa
:020000040002f8
:04aff8009dfa0000be
:020000040000fa
:020000040002f8
:04affc00ff3f000013
:00000001FF
